:020000040000FA
:10000000200220204D01000051010000530100009A
:1000100000000000000000000000000000000000E0
:10002000000000000000000000000000550100007A
:10003000000000000000000057010000590100000E
:100040005B0100005B0100005B0100005B01000040
:100050005B0100005B0100005B0100005B01000030
:10006000000000005B0100005B01000000000000D8
:10007000000000005B0100005B0100005B0100006C
:100080005B0100005B0100005B0100005B01000000
:100090005B0100005B0100000000000000000000A8
:1000A0005B0100005B010000000000000000000098
:1000B0005B010000000000005B0100005B0100002C
:1000C00000F002F800F032F80CA030C8083824180C
:1000D0002D18671EA246AB4654465D46AC4201D180
:1000E00000F024F87E460F3EB6460FCC0126334280
:1000F00000D0FB1A3343A246AB46184774040000F5
:1001000084040000000000000023002400250026D5
:10011000103A01D378C1FBD8520700D330C100D5C3
:100120000B6070471FB51FBD10B510BD00F027F85C
:100130001146FFF7F7FF00F0A3F900F03FF803B412
:10014000FFF7F2FF03BC00F045F800000648004747
:10015000FEE7FEE7FEE7FEE7FEE7FEE703480449A9
:10016000024A044B70470000C1000000200120201B
:1001700020022020200120207047704770477546DC
:1001800000F024F8AE46050069465346C008C0009A
:10019000854618B020B5FFF7E1FF60BCB6460026E3
:1001A0000027C0C5C0C5C0C5C0C5C0C5C0C5C0C585
:1001B000C0C5403D490849008D46704710B504460A
:1001C000C046C0462046FFF7BAFF10BD0048704742
:1001D0000000202001491820ABBEFEE726000200E7
:1001E0007047811E091F00BFFCD27047F0B53C4A22
:1001F00082183C4BC31808794E793B4D3B4C002E7E
:1002000023D0202804D00526F601002803D003E0DF
:10021000374E002800D18826576F2F403743576745
:10022000976F2F4037439767566B26405663966B00
:10023000264096630026566596658F26F6435F68CE
:1002400037405F609F6837409F608E79096820283B
:100250000BD0002819D1491E5160D76E2F4088213C
:100260000F43D7661746703719E0491E5160D16EAB
:1002700029401F4F3943D166116F29403943116717
:10028000012149071B4D174609E049085160D76E07
:100290002F400521C9010F43D766174670373C68C8
:1002A0002C400C433C60D16A104C2140D162116B50
:1002B000214011630021D16411658F21C943D46F9E
:1002C0000C40D4671C680C401C600643BD203040C5
:1002D0001168094B0B40C018801C1060F0BDC0466F
:1002E000041800008418000024493E008888FDFF9F
:1002F00001040000FFFFFFCF4000FFCF10B5072330
:100300009B04194092008018024A84589C4361184B
:10031000815010BD3018000010B5029CA4000019D7
:1003200011431943014A815010BDC04650180000C6
:1003300092008018014A81507047C0461018000092
:1003400010B50122120383180C789C604B788350FF
:100350008978014A815010BD0C11000008488421A1
:100360000164084910220A608121016090228150B5
:10037000054801210160C9030161491C01647047FE
:1003800004804240D0320A4090120A40B0B582B098
:100390006B4C13492046FFF7D3FF12492046FFF765
:1003A00025FF65480168104A0A400260002568463A
:1003B0000560204629462A462B46FFF7ADFF20461A
:1003C00029462A46FFF79AFF5E4920462A46FFF74C
:1003D000AFFF064801218160016002B0B0BDC04698
:1003E00060050000640500007F00FFFF00318640CB
:1003F00010B50C48002101600720C2430A48835809
:100400000321C9430B408350026801239A430260D1
:100410001A0204689443046042581B031343435078
:1004200010BDC04608030B4008010B4080B500F02A
:100430000DF8FFF793FFFFF7DBFFFFF7A7FFB820EB
:10044000014900220A5480BD6000202080B5074881
:1004500007494160074A5160074B596007490160ED
:10046000116019601020FFF7BCFE80BD00080A4033
:10047000030000B100280A40002886400100002641
:10048000F0B585B0FFF7D2FF2B4801680122114378
:1004900001600F20C043D1030291491C274A0392F7
:1004A00011502748274F002204903946FFF740FF9C
:1004B00025480190FFF795FE24480090441C244DE8
:1004C000244E002204983946FFF732FF0398029920
:1004D00001602846FFF785FE1437143CB442F0D87B
:1004E0000198FFF77EFE7D200401761C1A4F002242
:1004F00004983946FFF71CFF0398029901602846CB
:10050000FFF76FFE143F1436601C8642EFD301984C
:10051000FFF767FE114E009F002204983146FFF757
:1005200007FF0398029901602846FFF75AFE143628
:10053000143CBC42F0D8B4E704388640B0120A40FC
:1005400000208640444800000048E801DB05000028
:10055000006A1800E7030000384A00005046000017
:1005600004000300204E0000000000000000000016
:10057000800500000000202020020000080100008B
:04000005000000C136
:00000001FF
